:100000006BEF0AF068961200046ED8CF05F0E0CFCF
:1000100006F00001E9CF0CF0EACF07F0E1CF08F0DD
:10002000E2CF09F0D9CF0AF0DACF0BF0F3CF12F01C
:10003000F4CF13F0FACF14F0F5CF15F0F6CF16F099
:10004000F7CF17F000C00EF001C00FF002C010F0A3
:1000500003C011F0A0AA30EF00F0A1BA62EF08F0DF
:100060000EC000F00FC001F010C002F011C003F08C
:100070000CC0E9FF07C0EAFF078E08C0E1FF09C016
:10008000E2FF0AC0D9FF0BC0DAFF12C0F3FF13C0B2
:10009000F4FF14C0FAFF15C0F5FF16C0F6FF17C035
:1000A000F7FF045006C0E0FF05C0D8FF1000F76A54
:1000B000BE0FF66E000EF7220900F5501200040381
:1000C00009040A0368006F006C0061000A037500F0
:1000D000610072007400F76AE60FF66E000EF722F8
:1000E0000900F5501200000302FFFFFFFFFFFFFFB2
:1000F000FFFFFFFFFFFFF76A060FF66E010EF72204
:100100000900F550120000FF02FFFFFFFFFFFFFF95
:10011000FFFFFFFFFFFFF76A260FF66E010EF722C3
:100120000900F550120040000B00400000000000E4
:1001300000000000000000000000000000000000BF
:10014000000000000000F76A560FF66E010EF7225D
:100150000900F550120040000000400000000000BF
:10016000000000000000000000000000000000008F
:10017000000000000000F76A860FF66E010EF722FD
:100180000900F55012000902430002010080320903
:1001900004000001020201000524001001042402F1
:1001A0000205240600010524010001070581030B57
:1001B00000FA09040100020A0000000705020240DB
:1001C00000010705820240000100F76ADA0FF66EAF
:1001D000010EF7220900F55012000200F76AEC0F39
:1001E000F66E010EF7220900F550120012171B20BF
:1001F000FFFFFFFFF76A040FF66E020EF7220900F9
:10020000F55012001201100102000040D8040A004B
:100210000001010200016D92699468A402D0689403
:10022000FCD76EEF08F0400E0401016F040E0101CF
:10023000A86F180EA8C103F4E8CF02F4880E0401D9
:10024000006F046B040E076F580E066F000112005A
:1002500070A002D0E8DF7090689A75EF08F06A6AC3
:1002600068927AEF08F00101B491B3BFB481B39FF3
:10027000B351100803E2000E016E1AD0B4A10DD0E4
:10028000036AB351000127DFFF0802E1000E01D02D
:10029000010E016E01010CD00BD0036AB3510001B5
:1002A0002ADFFF0802E1000E01D0010E016E0101FC
:1002B000000112000101B851BA03F3CF01F0F4CFED
:1002C00000F0BB03F3500026B951BA03F3500020ED
:1002D000026E00011200036A0101B251700FE96E53
:1002E0000F0E0320EA6EEF6AB2C1B3F10001BBDF6B
:1002F000015228E00101B96BB2C1B8F1BB6B080E25
:10030000BA6F0001D7DF010101C0E9FF040E02242A
:10031000EA6EEF6AB96BB2C1B8F1BB6B080EBA6F87
:100320000001C8DF02C0B4F101C0B3F1040E010145
:10033000B327000EB423B3C1E9FF040EB425EA6E5F
:10034000EF6A00011200010E0101B16FB1510F08F7
:1003500007E3B1C1B2F10001BEDF0101B12BF6D755
:10036000000112000101AB6BAA6B250EA96F800E74
:10037000A86FEA6A2E0EE96E010EE26EA80EE16E1B
:10038000020E016EE6CFEEFF012EFCD7306A316A15
:10039000A86BEA6A320EE96E010EE26EA80EE16EFB
:1003A000E6CFEEFFA86BEA6A330EE96E010EE26E4D
:1003B000A80EE16EE6CFEEFF080EA86FEA6A340ED3
:1003C000E96E010EE26EA80EE16EE6CFEEFF0001CF
:1003D000786B7791366A356A766B2190796B12006B
:1003E0002B6A2A6A0101A76BA75101080AE3036A75
:1003F000A7512C0FE96E000E0320EA6EEF6AA72BBF
:10040000F3D70001AFDF1E6A010E1F6E1D6A1200D6
:100410006A6A686A9F0E6B6E3D0E696E6E6A93DF44
:10042000DFDF160E706E68A602D0ECDDFCD76D988B
:10043000FADE030E256E7FEF08F0698468986D82FE
:1004400084EF08F0689C89EF08F0ACC126F0120038
:10045000266812000101AA6B2A502B1033E0AA5122
:100460003F0830E32050000A000105E0020A0AE0DC
:10047000010A0FE014D029C003F028507CDEE8CF39
:10048000ABF10DD029C003F0285011DEE8CFABF15D
:1004900006D029C003F02850ADDEE8CFABF1282A02
:1004A000D8B4292A2A50D8B42B062A060101AA5109
:1004B000AA2B580FE96E040EEA6ED8B0EA2AABC137
:1004C000EFFFCAD72A502B1004E1AA51400801E0DF
:1004D0001D6AAAC1ACF10001B8DF1200296A286ABE
:1004E000206A04011B51010A000107E0030A0BE026
:1004F000010A0DE0220A22E03AD02B6A120E2A6E7F
:10050000030E206E36D02B6A430E2A6E32D0020EB6
:10051000206E036A04011A511A0FE96E000E0320BF
:10052000EA6E296AEFCF28F029C003F028500001B5
:10053000BEDD036A2A6E03C02BF01BD0036A0401E0
:100540001A5100014BDE036A286E03C029F0283CD3
:1005500002D029520AE029C003F028500CDE036AB9
:100560002A6E03C02BF005D002D072DF11D070DFED
:100570000FD004011F5308E12B5203E12A501E5DE6
:1005800003E22B6A1EC42AF0010E1D6E000162DF19
:100590001BEF04F00101A95306E1040E256E0001D2
:1005A000D2DEEAD00101050E256E040EAC6F980E66
:1005B000AB6F010EAA6FAA510F08D8A0DDD0AAC157
:1005C000B2F1000188DE0101AD6B036AAA5100019E
:1005D00092DDFF0867E0040E0101AD6FD890AA35E7
:1005E000036A0001B0DD0900F5CF03F00101AE6F31
:1005F00003C0AFF1B96BAAC1B8F1BB6B080EBA6FFB
:10060000000158DE01C0B1F1010E01010124016EAB
:10061000000E0220036E01C0E9FF040E0324EA6EFF
:10062000AEC1EFFFB96BAAC1B8F1BB6B080EBA6FD0
:10063000000140DE01C0B1F1020E01010124016E92
:10064000000E0220036E01C0E9FF040E0324EA6ECF
:10065000ACC1ECFFED52ABC1EFFFD890AA35036AF5
:10066000000171DD0900F5CF03F00101AB27035054
:10067000AC23880EB06FAFA101D0B081AFA301D081
:10068000B083B96BAAC1B8F1BB6B080EBA6F000199
:1006900011DE010101C0E9FF040E0224EA6EB0C1BF
:1006A000EFFF0001036A0101AA51000114DDFF08F8
:1006B00048E00101AD83B96BAAC1B8F1BB6B080E6C
:1006C000BA6F0001F7DD02C0B2F101C0B1F1040E52
:1006D0000101B127000EB223020EB125016E000EFA
:1006E000B221036E01C0E9FF040E0324EA6EACC11F
:1006F000ECFFED52ABC1EFFFD890AA35036A0001C1
:100700000ADD0900F5CF03F00101AB270350AC234C
:10071000B96BAAC1B8F1BB6B080EBA6F0001CADD94
:1007200002C0B2F101C0B1F1040E0101B127000E07
:10073000B223B1C1E9FF040EB225EA6E400EEF6E9E
:1007400000010101AD51060802E10E0EAD6F036A12
:10075000AA510001C0DC010803E00101AD890001DC
:10076000036A0101AA51700FE96E0F0E0320EA6EB1
:10077000ADC1EFFFAA2B1FD7000113EF04F0040156
:100780001951000A00010DE0010A15E0020A21E0FA
:10079000060A2CE0030A33E00E0A33E0010A39E0CE
:1007A00049D01FC058F40401596B020E0101AC6F0F
:1007B00000014BDE40D004011A2D08D0010E1F1697
:1007C0000101AC6B000141DE03D00401000140DEF9
:1007D00032D004011A2D07D01F820101AC6B000139
:1007E00034DE03D00401000133DE25D0020E1D6E7D
:1007F0001AC427F00101AC6B000127DE1CD06ED6B5
:100800001AD01EC058F4010E0101AC6F00011DDEAC
:1008100012D004011A5101080BE31AC41EF01AC4C5
:10082000A9F10001B7D60101AC6B00010EDE040195
:10083000000101D00DDEAAEF05F01EC0A9F10401F0
:100840001951000A000105E00A0A0CE0010A2CE037
:1008500041D00401586B596B020E0101AC6F0001CD
:10086000F4DD39D00101A9531CE0010EA95D036A32
:100870000001ABDC016E04011C5DD8A002D00101B7
:1008800010D0036A1C512C0FE96E000E0320EA6E93
:10089000EFCF58F4010E0101AC6F0001D6DD03D09B
:1008A00001010001D5DD17D00101A95310E0036A51
:1008B00004011C512C0FE96E000E0320EA6E1AC4CD
:1008C000EFFF0101AC6B0001C0DD03D001010001AD
:1008D000BFDD01D0BDDDAAEF05F00101AA91A9BFDE
:1008E000AA81A99FAAA119D0B96BA9C1B8F1BB6B04
:1008F000080EBA6F0001DEDC02C0ACF101C0ABF142
:10090000040E0101AB27000EAC23ABC1E9FF040EBE
:10091000AC25EA6E880EEF6E0FD0B96BA9C1B8F1A5
:10092000BB6B080EBA6F0001C5DC010101C0E9FF15
:10093000040E0224EA6EEF6A00011FEF05F00101C8
:10094000AA91A9BFAA81A99FAAA119D0B96BA9C1CF
:10095000B8F1BB6B080EBA6F0001ACDC02C0ACF1A1
:1009600001C0ABF1040E0101AB27000EAC23ABC1FB
:10097000E9FF040EAC25EA6E840EEF6E10D0B96B61
:10098000A9C1B8F1BB6B080EBA6F000193DC01017D
:1009900001C0E9FF040E0224EA6E840EEF6E00012E
:1009A00027EF05F00101AA91A9BFAA81A99FAAA1D9
:1009B00019D0B96BA9C1B8F1BB6B080EBA6F0001B1
:1009C00079DC02C0ADF101C0ACF1040E0101AC272D
:1009D000000EAD23ACC1E9FF040EAD25EA6EEFCFEA
:1009E000ABF110D0B96BA9C1B8F1BB6B080EBA6FEF
:1009F000000160DC010101C0E9FF040E0224EA6E7F
:100A0000EFCFABF1ABAF02D0ABB502D0000E01D04F
:100A1000010E016E000133EF05F01CC4B3F123DCBD
:100A200001522EE004011951010A000105E0020AF9
:100A30000BE0030A11E023D01CC4A9F14ED7010139
:100A4000AC6B000102DD1CD01CC4A9F178D70101F8
:100A5000AC6B0001FADC14D00401586B596B1CC458
:100A6000A9F100019FD7015204E0010E0401586F63
:100A70000001020E0101AC6F0001E7DC01D0E8DCEF
:100A8000AAEF05F0FE0E266E120004011C2D01D007
:100A900002D01C5345E11FC4AAF11EC4A9F119518B
:100AA000000A00010BE0010A0DE0210A0FE0010A33
:100AB00012E0030A23E0010A28E030D0010E796F2A
:100AC000E1DF2DD0A9C1ACF1C0DC29D0020E796FD5
:100AD0007781D8DF24D0040EEA6E580EE96EE26A00
:100AE0002E0EE16E070E016EE6CFEEFF012EFCD753
:100AF000070E0101AC6F0001A8DC11D01AC478F018
:100B00000101AC6B0001A1DC0AD01AC436F01BC491
:100B100035F00101AC6B000198DC01D099DC0401D7
:100B20000001AAEF05F01D6A040118517F0B000AAD
:100B3000000107E0010A07E0030A07E0230A07E0D3
:100B400008D01DD607D079D605D067D703D09DD75A
:100B500001D07EDC02EF08F00101B96BAAC1B8F147
:100B6000BB6B080EBA6F00015AEC01F0010101C025
:100B7000E9FF040E0224EA6EEFCFACF1AB5102089C
:100B800006E1ACAD02D0AB6B02D0010EAB6FAB5146
:100B900003081CE1840EAC6FB96BAAC1B8F1BB6B42
:100BA000080EBA6F00015AEC01F002C0B0F101C0AA
:100BB000AFF1040E0101AF27000EB023AFC1E9FF72
:100BC000040EB025EA6E840EEF6E07D0AB2D03D075
:100BD000C80EAC6F02D0880EAC6FD890AA35036AED
:100BE0000001A3EC00F00900F5CF03F00101AD6FA7
:100BF00003C0AEF1B96BAAC1B8F1BB6B080EBA6FF6
:100C000000015AEC01F001C0AFF1010E0101012415
:100C1000016E000E0220036E01C0E9FF040E0324E2
:100C2000EA6EADC1EFFFAEA101D0AC81AEA301D0A1
:100C3000AC83B96BAAC1B8F1BB6B080EBA6F0001E7
:100C40005AEC01F0010101C0E9FF040E0224EA6E32
:100C5000ACC1EFFF00011200036A0101B751700F30
:100C6000E96E0F0E0320EA6EEF521BE0B96BB7C1BD
:100C7000B8F1BB6B080EBA6F00015AEC01F002C06C
:100C8000B9F101C0B8F1040E0101B827000EB92373
:100C9000B8C1E9FF040EB925EA6EEFCFBAF1BAAFD9
:100CA00002D0000E01D0010E016E00011200B2C18F
:100CB000B7F1D2DF0152D8B487D00101B96BB2C10C
:100CC000B8F1BB6B080EBA6F00015AEC01F002C01C
:100CD000B8F101C0B7F1040E0101B727000EB82327
:100CE000010EB725016E000EB821036E01C0E9FFA9
:100CF000040E0324EA6EB3C1EFFFB551020820E1F0
:100D0000B96BB2C1B8F1BB6B080EBA6F00015AECF7
:100D100001F002C0B8F101C0B7F1040E0101B7271C
:100D2000000EB823B7C1E9FF040EB825EA6EEFCF75
:100D3000B6F1B6AD02D0B56B02D0010EB56F1AD0C8
:100D4000B551040817E1B96BB2C1B8F1BB6B080E1D
:100D5000BA6F00015AEC01F0010101C0E9FF040E75
:100D60000224EA6EEFCFB6F1B6AD03D0010EB56F37
:100D700001D0B56BB52D03D0C80EB66F02D0880E6A
:100D8000B66FB4A101D0B681B4A301D0B683B96B5C
:100D9000B2C1B8F1BB6B080EBA6F00015AEC01F09A
:100DA00002C0B8F101C0B7F1040E0101B727000E6F
:100DB000B823B7C1E9FF040EB825EA6EB6C1EFFF4C
:100DC000010E016E04D00001000E016E0101000150
:100DD00012007951010A03E0030A08E01BD0010167
:100DE000AC6B000125EC02F0796B15D0EA6A2E0E8F
:100DF000E96E040EE26E180EE16E070E016EE6CF8C
:100E0000EEFF012EFCD7796B0101AC6B000125ECE4
:100E100002F001D0796B4AEF07F00101B96BAAC16A
:100E2000B8F1BB6B080EBA6F00015AEC01F002C0BA
:100E3000ACF101C0ABF1010E01010124016E000E05
:100E40000220036E01C0E9FF040E0324EA6E036A68
:100E5000EFCF01F003C002F000013EEF07F0219058
:100E6000020E0101AA6FAB6F000176DE1200218035
:100E7000236A020E0101AA6F0001CFD701C022F040
:100E8000225201E1ECDF51EF07F00101A95304E127
:100E900000019FD706D00101A951020803E100011A
:100EA000E6D7010100011200AAC16EFF0101AA5399
:100EB00003E0040E256E02D0020E256E000166EFDF
:100EC00007F01E6A1D6A27C0AAF1EED7DCEF07F013
:100ED000AAC1B7F1C1DE015247E00101B96BAAC155
:100EE000B8F1BB6B080EBA6F00015AEC01F002C0FA
:100EF000B3F101C0B2F1040E0101B227000EB32319
:100F0000020EB225016E000EB321036E01C0E9FF8F
:100F1000040E0324EA6EECCFB1F1ED52EFCFB0F145
:100F2000B1C1EAFFB0C1E9FFACC1E2FFABC1E1FF73
:100F3000AEC102F0ADC101F0015202E0022A02D0BE
:100F4000025206E0E6CFEEFF012EFCD7022EFAD7C2
:100F5000AAC1B2F1AEC1B4F1ADC1B3F1AFC1B5F147
:100F60000001A5DE015002D0000E016E1200765382
:100F700010E0020E0101AA6FAC6B370EAB6FAE6BC7
:100F800076C0ADF1020EAF6F0001A2DF015201E0A9
:100F9000766B1200ECDFE3EF07F00101A9530EE1DD
:100FA0001D2C05D000012AEC02F006D001011D50D5
:100FB000020803E1000185D7010106D0A95102080A
:100FC00003E10001E7D70101000112002430010113
:100FD000A76FA733A7331F0EA71724524EE10401B2
:100FE00000513C0B0101A86F430E040100170101E1
:100FF000A851340825E104010451800B01E0046B81
:10100000000191D56D98263C07D00101AA6B030E13
:10101000AB6F0001A1DD12D00101AA6B020EAB6F14
:1010200000019ADD2650FE0809E00101B26BB46BA5
:1010300026C0B3F1040EB56F000139DE1CD00101EA
:10104000A851040819E1A96B00011FDF0101AA6B77
:10105000020EAB6F000180DD2650FE080CE0263C3E
:1010600001D009D00101B26BB46B26C0B3F1010EFF
:10107000B56F00011CDE010122D02450040812E1EA
:101080002668A96B000189DF263C01D009D0010147
:10109000B26BB46B26C0B3F1020EB56F000107DE70
:1010A0000DD0010124B406D0A7C1A9F10001EDDEE5
:1010B00005D00101A7C1A9F100016FDF0101000105
:1010C00095EF08F0A19A2552D8B439D06852D8B417
:1010D00036D068A403D069B40BEF01F06DB22FD005
:1010E00068AA03D069BA28EF01F068A203D069B2F8
:1010F0002FEF01F068A003D069B008EF02F068A8F4
:1011000003D069B81DEF02F068AC03D069BC22EFD0
:1011100002F00101A66B68A60AD069A608D06CCFC0
:1011200024F0000102EC00F051D703D0010106D0F9
:1011300000010101A651A62B0308EDE2000130EFEA
:1011400000F0234F4B0A0000234F4E0A0000234FAC
:1011500046460A00234F4E0A0000234F46460A0027
:101160002352454144590A0023425553590A00006D
:101170002346494E49534845440A00006D926D6A22
:10118000696A080E6F6E945030090101946E256AE9
:10119000196AF2BE198EF29E0001F0EC01F019BE40
:1011A000F28ED4EF08F0EAD700EF09F0196AF2BE28
:1011B000198EF29EF0EC01F019BEF28E6D926D6AFE
:1011C0006D8C00D000D000006D9C140E6F6E696AAB
:1011D0006D86010E256EF0EF08F06DB601D0E6D7F2
:1011E000252C0BD06DBA09D0686A696AA08AC00E36
:1011F000F212110E696E020E256E01EF09F0D3D7BF
:10120000ECD725500208FCE10BEF0BF0010EEA6E63
:101210008C0EE96EEF500EE00F0E016E006A002E8C
:10122000FED7012EFBD78F0E006E002EFED70000DA
:10123000EF2EF2D7120093948A948BC18CF1E6DFE3
:1012400093948A848BC18CF1E1DF1AEF0BF0F29852
:10125000F29A779377B302D08A9601D08A869396D2
:10126000030E01018A6F000121EF0BF021B001D0C4
:10127000FDD72350232AA30FE96E040EEA6ED8B0DF
:10128000EA2AEFCF8DF12250235C07E3196AF2BE00
:10129000198EF29EE4DD19BEF28E01018DC101F0BE
:1012A00000011200BC6BBC513F080AE3036ABC5149
:1012B0007C0FE96E000E0320EA6EEF6ABC2BF3D7B9
:1012C00021A036D0D3DF01C0BDF0BD5123082CE1F1
:1012D000BC6B036ABC517C0FE96E000E0320EA6E02
:1012E000BDC0EFFF21A013D0BC2B036ABC517C0F03
:1012F000016E000E032201C08BF103C08CF10001CE
:10130000B5DF8CC1EAFF8BC1E9FF01C0EFFF036AC3
:10131000BC517C0FE96E000E0320EA6EEF500A0804
:10132000E1E1010E016E06D0000E016E03D002D085
:10133000000E016E24EF0BF001019491A0BA94818C
:10134000A09A000176513E0802E23E0E766F765179
:10135000762B036A370FE96E000E0320EA6E93C105
:10136000EFFF010194A101D0A08A0001BBEF09F0B9
:1013700092C193F1E1D7196AF2BE198EF29EF7DDA0
:1013800019BEF28ECCEF09F03F0ED880765501E100
:10139000FBD791C192F1ECD712000900F5520CE095
:1013A000F6CF8BF1F7CF8CF1F5CF91F1EDDF8BC15B
:1013B000F6FF8CC1F7FFF1D71200010E01018A6F11
:1013C0000001BF6BBE6BC16BC06B778377B302D07C
:1013D0008A9601D08A8693967CEF0BF0777377B369
:1013E00002D08A9601D08A86939642EF0BF00101D3
:1013F0008C6B8B6B230E916F0001C6DF01018E6B2E
:101400008D6B8E535DE18D5163085AE38F6B8CC1F8
:1014100090F18CC18FF1906B8CC191F10001B4DF20
:1014200001018BC18FF1906B8BC191F10001ACDF99
:101430002C0E0101916F0001A7DFD89001018D35BD
:10144000026E8E35036E0250C20FE96E000E03204D
:10145000EA6EECCF90F1ED52EFCF8FF18F6B90C130
:101460008FF1906B8FC191F100018EDFD890010157
:101470008D35026E8E35036E0250C20FE96E000E7E
:101480000320EA6EECCF90F1ED52EFCF8FF1906B2D
:101490008FC191F1000178DF010E01018B27000E51
:1014A0008C238D51150803E18E2D01D005D0240E1B
:1014B000916F000169DF01018D2BD8B48E2BA1D76C
:1014C0000D0E916F000160DF0A0E0101916F0001A6
:1014D0005BDF7CEF0BF0F86AD09E078EBC6BBD6BB8
:1014E0007793BF6BBE6BC16BC06B01018A6BC15040
:1014F000C00B0F09C16E070EB46E6CD003001A004A
:10150000040E02007A0000C800C2000089058009AC
:10151000580C620ED70FE310A3112C128F12D512A4
:1015200008132C134613581366136F1376137B138B
:101530007F138113831384138513861386138713F4
:1015400087138713871387138713871387138713CB
:1015500087138713871387138713871387138713BB
:1015600087138713871387138713871387138713AB
:10157000871387138713871387138713871387139B
:10158000871387138713871387138713871387138B
:10159000871387138713871387138713871387137B
:1015A000871387138713871387138713871387136B
:1015B000871387138713871387138713871387135B
:1015C000871387138713871387138713871387134B
:1015D00087130000000EF86E140EF76EFC0EF66E08
:1015E0000900F550006E000A13E00900F550016E85
:1015F000E8BE05D00F0BEA6E0900F5CFE9FF01BC8C
:10160000090001AC0900F5CFEEFF004EE9D7F9D78C
:10161000F86A0001F4D5196AF2BE198EF29EB2EC96
:1016200001F019BEF28E77B106D02C0E01018B6F3E
:10163000000101D6F8D701018A51020803E1000137
:1016400006D6010100012ED60152D8B455D07C51E6
:101650002308D8A451D07E510A084EE17D51310AA9
:1016600009E0030A0EE0010A1BE0070A27E0010A6D
:1016700041E042D0420EF66E110EF76E8EDE9DD620
:101680003BD0ACD677B306D0480EF66E110EF76E8F
:1016900084DE05D04E0EF66E110EF76E7EDE2CD077
:1016A00077B306D0540EF66E110EF76E76DE05D0C7
:1016B0005A0EF66E110EF76E70DE1ED001018A51C1
:1016C000000A000105E0010A09E0030A0DE011D05B
:1016D000600EF66E110EF76E60DE0BD0680EF66EC1
:1016E000110EF76E5ADE05D0700EF66E110EF76E03
:0C16F00054DE02D07CD600D09ED7030050
:020000040030CA
:0E00000022CE381E0085A1000FC00FE00F4079
:00000001FF
;PIC18F4550
;CRC=979B  CREATED="05-abr.-22 15:33"
