:10000000BDEF0AF068961200046ED8CF05F0E0CF7D
:1000100006F00001E9CF0CF0EACF07F0E1CF08F0DD
:10002000E2CF09F0D9CF0AF0DACF0BF0F3CF12F01C
:10003000F4CF13F0FACF14F0F5CF15F0F6CF16F099
:10004000F7CF17F000C00EF001C00FF002C010F0A3
:1000500003C011F0F2AA30EF00F0F2B4ADEF08F0F7
:10006000F2A836EF00F0F2B2E2EF08F0A0AA3CEFFF
:1000700000F0A1BA6EEF08F00EC000F00FC001F062
:1000800010C002F011C003F00CC0E9FF07C0EAFF86
:10009000078E08C0E1FF09C0E2FF0AC0D9FF0BC00C
:1000A000DAFF12C0F3FF13C0F4FF14C0FAFF15C04B
:1000B000F5FF16C0F6FF17C0F7FF045006C0E0FFBB
:1000C00005C0D8FF1000F76AD60FF66E000EF722B3
:1000D0000900F5501200040309040A0368006F00C8
:1000E0006C0061000A037500610072007400F76A19
:1000F000FE0FF66E000EF7220900F5501200000305
:1001000002FFFFFFFFFFFFFFFFFFFFFFFFFFF76A99
:100110001E0FF66E010EF7220900F550120000FFC7
:1001200002FFFFFFFFFFFFFFFFFFFFFFFFFFF76A79
:100130003E0FF66E010EF7220900F5501200400046
:100140000B00400000000000000000000000000064
:100150000000000000000000000000000000F76A3E
:100160006E0FF66E010EF7220900F55012004000E6
:10017000000040000000000000000000000000003F
:100180000000000000000000000000000000F76A0E
:100190009E0FF66E010EF7220900F55012000902BB
:1001A0004300020100803209040000010202010044
:1001B0000524001001042402020524060001052480
:1001C000010001070581030B00FA09040100020A7E
:1001D00000000007050202400001070582024000FE
:1001E0000100F76AF20FF66E010EF7220900F550D2
:1001F00012000200F76A040FF66E020EF7220900E1
:10020000F550120012171B20FFFFFFFFF76A1C0FAB
:10021000F66E020EF7220900F550120012011001CD
:1002200002000040D8040A000001010200016D92A2
:10023000699468A402D06894FCD77AEF08F0400E65
:100240000401016F040E03010C6F180E0CC303F4BC
:10025000E8CF02F4880E0401006F046B040E076FF0
:10026000580E066F0001120070A002D0E8DF7090F7
:10027000689A81EF08F06A6A689286EF08F00301D5
:10028000189117BF1881179F1751100803E2000E2D
:10029000016E1AD018A10DD0036A1751000127DF93
:1002A000FF0802E1000E01D0010E016E03010CD027
:1002B0000BD0036A175100012ADFFF0802E1000E8C
:1002C00001D0010E016E03010001120003011C5157
:1002D0001E03F3CF01F0F4CF00F01F03F35000260C
:1002E0001D511E03F3500020026E00011200036A2C
:1002F00003011651700FE96E0F0E0320EA6EEF6ACC
:1003000016C317F30001BBDF015228E003011D6B88
:1003100016C31CF31F6B080E1E6F0001D7DF03010D
:1003200001C0E9FF040E0224EA6EEF6A1D6B16C3DA
:100330001CF31F6B080E1E6F0001C8DF02C018F30C
:1003400001C017F3040E03011727000E182317C36B
:10035000E9FF040E1825EA6EEF6A00011200010E93
:100360000301156F15510F0807E315C316F30001BC
:10037000BEDF0301152BF6D70001120003010F6B3E
:100380000E6B250E0D6F800E0C6FEA6A2E0EE96E55
:10039000030EE26E0C0EE16E020E016EE6CFEEFF72
:1003A000012EFCD7306A316A0C6BEA6A320EE96EB4
:1003B000030EE26E0C0EE16EE6CFEEFF0C6BEA6A06
:1003C000330EE96E030EE26E0C0EE16EE6CFEEFF29
:1003D000080E0C6FEA6A340EE96E030EE26E0C0E24
:1003E000E16EE6CFEEFF0001786B7791366A356AF1
:1003F000766B2190796B12002B6A2A6A03010B6BD2
:100400000B5101080AE3036A0B512C0FE96E000E31
:100410000320EA6EEF6A0B2BF3D70001AFDF1E6AF1
:10042000010E1F6E1D6A12006A6A686A9F0E6B6E6B
:100430003D0E696E6E6A93DFDFDF160E706E68A682
:1004400002D0E0DDFCD76D98FADE030E256E8BEF4F
:1004500008F0698468986D8290EF08F0689C95EFC9
:1004600008F010C326F012002668120003010E6B7C
:100470002A502B1033E00E513F0830E32050000A81
:10048000000105E0020A0AE0010A0FE014D029C0C9
:1004900003F028507CDEE8CF0FF30DD029C003F025
:1004A000285011DEE8CF0FF306D029C003F0285002
:1004B000ADDEE8CF0FF3282AD8B4292A2A50D8B4C1
:1004C0002B062A0603010E510E2B580FE96E040E5F
:1004D000EA6ED8B0EA2A0FC3EFFFCAD72A502B1012
:1004E00004E10E51400801E01D6A0EC310F3000143
:1004F000B8DF1200296A286A206A04011B51010A28
:10050000000107E0030A0BE0010A0DE0220A22E0E5
:100510003AD02B6A120E2A6E030E206E36D02B6A4A
:10052000430E2A6E32D0020E206E036A04011A5165
:100530001A0FE96E000E0320EA6E296AEFCF28F049
:1005400029C003F028500001BEDD036A2A6E03C0F3
:100550002BF01BD0036A04011A5100014BDE036A21
:10056000286E03C029F0283C02D029520AE029C095
:1005700003F028500CDE036A2A6E03C02BF005D06E
:1005800002D072DF11D070DF0FD004011F5308E1D9
:100590002B5203E12A501E5D03E22B6A1EC42AF08F
:1005A000010E1D6E000162DF27EF04F003010D5301
:1005B00006E1040E256E0001D2DEEAD00301050E2D
:1005C000256E040E106F980E0F6F010E0E6F0E51F8
:1005D0000F08D8A0DDD00EC316F3000188DE03019A
:1005E000116B036A0E51000192DDFF0867E0040EF3
:1005F0000301116FD8900E35036A0001B0DD0900C8
:10060000F5CF03F00301126F03C013F31D6B0EC38C
:100610001CF31F6B080E1E6F000158DE01C015F39E
:10062000010E03010124016E000E0220036E01C0C1
:10063000E9FF040E0324EA6E12C3EFFF1D6B0EC325
:100640001CF31F6B080E1E6F000140DE01C015F386
:10065000020E03010124016E000E0220036E01C090
:10066000E9FF040E0324EA6E10C3ECFFED520FC342
:10067000EFFFD8900E35036A000171DD0900F5CF58
:1006800003F003010F2703501023880E146F13A1EA
:1006900001D0148113A301D014831D6B0EC31CF36E
:1006A0001F6B080E1E6F000111DE030101C0E9FF80
:1006B000040E0224EA6E14C3EFFF0001036A030173
:1006C0000E51000114DDFF0848E0030111831D6B8A
:1006D0000EC31CF31F6B080E1E6F0001F7DD02C076
:1006E00016F301C015F3040E03011527000E16239F
:1006F000020E1525016E000E1621036E01C0E9FFE2
:10070000040E0324EA6E10C3ECFFED520FC3EFFF9B
:10071000D8900E35036A00010ADD0900F5CF03F019
:1007200003010F27035010231D6B0EC31CF31F6B17
:10073000080E1E6F0001CADD02C016F301C015F3DA
:10074000040E03011527000E162315C3E9FF040E3E
:100750001625EA6E400EEF6E0001030111510608E6
:1007600002E10E0E116F036A0E510001C0DC010898
:1007700003E0030111890001036A03010E51700FA8
:10078000E96E0F0E0320EA6E11C3EFFF0E2B1FD789
:1007900000011FEF04F004011951000A00010DE0EF
:1007A000010A15E0020A21E0060A2CE0030A33E000
:1007B0000E0A33E0010A39E049D01FC058F40401A1
:1007C000596B020E0301106F00014BDE40D0040193
:1007D0001A2D08D0010E1F160301106B000141DE17
:1007E00003D00401000140DE32D004011A2D07D0ED
:1007F0001F820301106B000134DE03D004010001ED
:1008000033DE25D0020E1D6E1AC427F00301106BD3
:10081000000127DE1CD06ED61AD01EC058F4010E7F
:100820000301106F00011DDE12D004011A510108EE
:100830000BE31AC41EF01AC40DF30001B7D603016E
:10084000106B00010EDE0401000101D00DDEB6EFD9
:1008500005F01EC00DF304011951000A000105E066
:100860000A0A0CE0010A2CE041D00401586B596BD4
:10087000020E0301106F0001F4DD39D003010D53A6
:100880001CE0010E0D5D036A0001ABDC016E04018A
:100890001C5DD8A002D0030110D0036A1C512C0F9C
:1008A000E96E000E0320EA6EEFCF58F4010E03014B
:1008B000106F0001D6DD03D003010001D5DD17D094
:1008C00003010D5310E0036A04011C512C0FE96E63
:1008D000000E0320EA6E1AC4EFFF0301106B000143
:1008E000C0DD03D003010001BFDD01D0BDDDB6EFE7
:1008F00005F003010E910DBF0E810D9F0EA119D0C1
:100900001D6B0DC31CF31F6B080E1E6F0001DEDC98
:1009100002C010F301C00FF3040E03010F27000EF5
:1009200010230FC3E9FF040E1025EA6E880EEF6E48
:100930000FD01D6B0DC31CF31F6B080E1E6F000143
:10094000C5DC030101C0E9FF040E0224EA6EEF6A70
:1009500000012BEF05F003010E910DBF0E810D9FDD
:100960000EA119D01D6B0DC31CF31F6B080E1E6F5B
:100970000001ACDC02C010F301C00FF3040E030150
:100980000F27000E10230FC3E9FF040E1025EA6E97
:10099000840EEF6E10D01D6B0DC31CF31F6B080E81
:1009A0001E6F000193DC030101C0E9FF040E022465
:1009B000EA6E840EEF6E000133EF05F003010E9135
:1009C0000DBF0E810D9F0EA119D01D6B0DC31CF321
:1009D0001F6B080E1E6F000179DC02C011F301C00D
:1009E00010F3040E03011027000E112310C3E9FFBA
:1009F000040E1125EA6EEFCF0FF310D01D6B0DC35F
:100A00001CF31F6B080E1E6F000160DC030101C0A8
:100A1000E9FF040E0224EA6EEFCF0FF30FAF02D00E
:100A20000FB502D0000E01D0010E016E00013FEFA4
:100A300005F01CC417F323DC01522EE00401195108
:100A4000010A000105E0020A0BE0030A11E023D0CD
:100A50001CC40DF34ED70301106B000102DD1CD046
:100A60001CC40DF378D70301106B0001FADC14D01D
:100A70000401586B596B1CC40DF300019FD7015240
:100A800004E0010E0401586F0001020E0301106F13
:100A90000001E7DC01D0E8DCB6EF05F0FE0E266EC3
:100AA000120004011C2D01D002D01C5345E11FC4CB
:100AB0000EF31EC40DF31951000A00010BE0010AE8
:100AC0000DE0210A0FE0010A12E0030A23E0010A07
:100AD00028E030D0010E796FE1DF2DD00DC310F387
:100AE000C0DC29D0020E796F7781D8DF24D0040EC4
:100AF000EA6E580EE96EE26A2E0EE16E070E016E86
:100B0000E6CFEEFF012EFCD7070E0301106F0001A8
:100B1000A8DC11D01AC478F00301106B0001A1DC2D
:100B20000AD01AC436F01BC435F00301106B000163
:100B300098DC01D099DC04010001B6EF05F01D6AD4
:100B4000040118517F0B000A000107E0010A07E0C9
:100B5000030A07E0230A07E008D01DD607D079D69C
:100B600005D067D703D09DD701D07EDC0EEF08F00B
:100B700003011D6B0EC31CF31F6B080E1E6F0001DB
:100B800066EC01F0030101C0E9FF040E0224EA6EE5
:100B9000EFCF10F30F51020806E110AD02D00F6B3A
:100BA00002D0010E0F6F0F5103081CE1840E106F6D
:100BB0001D6B0EC31CF31F6B080E1E6F000166EC4D
:100BC00001F002C014F301C013F3040E0301132754
:100BD000000E142313C3E9FF040E1425EA6E840EDD
:100BE000EF6E07D00F2D03D0C80E106F02D0880E05
:100BF000106FD8900E35036A0001AFEC00F00900C9
:100C0000F5CF03F00301116F03C012F31D6B0EC388
:100C10001CF31F6B080E1E6F000166EC01F001C093
:100C200013F3010E03010124016E000E0220036E76
:100C300001C0E9FF040E0324EA6E11C3EFFF12A105
:100C400001D0108112A301D010831D6B0EC31CF3C1
:100C50001F6B080E1E6F000166EC01F0030101C05E
:100C6000E9FF040E0224EA6E10C3EFFF0001120038
:100C7000036A03011B51700FE96E0F0E0320EA6E29
:100C8000EF521BE01D6B1BC31CF31F6B080E1E6F86
:100C9000000166EC01F002C01DF301C01CF3040E5C
:100CA00003011C27000E1D231CC3E9FF040E1D2594
:100CB000EA6EEFCF1EF31EAF02D0000E01D0010E80
:100CC000016E0001120016C31BF3D2DF0152D8B42B
:100CD00087D003011D6B16C31CF31F6B080E1E6F1C
:100CE000000166EC01F002C01CF301C01BF3040E0E
:100CF00003011B27000E1C23010E1B25016E000E95
:100D00001C21036E01C0E9FF040E0324EA6E17C321
:100D1000EFFF1951020820E11D6B16C31CF31F6B76
:100D2000080E1E6F000166EC01F002C01CF301C04A
:100D30001BF3040E03011B27000E1C231BC3E9FF3A
:100D4000040E1C25EA6EEFCF1AF31AAD02D0196B10
:100D500002D0010E196F1AD01951040817E11D6B4A
:100D600016C31CF31F6B080E1E6F000166EC01F02A
:100D7000030101C0E9FF040E0224EA6EEFCF1AF36B
:100D80001AAD03D0010E196F01D0196B192D03D0C4
:100D9000C80E1A6F02D0880E1A6F18A101D01A81DE
:100DA00018A301D01A831D6B16C31CF31F6B080E0A
:100DB0001E6F000166EC01F002C01CF301C01BF3C2
:100DC000040E03011B27000E1C231BC3E9FF040EA6
:100DD0001C25EA6E1AC3EFFF010E016E04D000015C
:100DE000000E016E0301000112007951010A03E0B7
:100DF000030A08E01BD00301106B000131EC02F084
:100E0000796B15D0EA6A2E0EE96E040EE26E180EAA
:100E1000E16E070E016EE6CFEEFF012EFCD7796B77
:100E20000301106B000131EC02F001D0796B56EF39
:100E300007F003011D6B0EC31CF31F6B080E1E6F22
:100E4000000166EC01F002C010F301C00FF3010EC7
:100E500003010124016E000E0220036E01C0E9FFB0
:100E6000040E0324EA6E036AEFCF01F003C002F020
:100E700000014AEF07F02190020E03010E6F0F6F81
:100E8000000176DE12002180236A020E03010E6F3C
:100E90000001CFD701C022F0225201E1ECDF5DEF6B
:100EA00007F003010D5304E100019FD706D00301B1
:100EB0000D51020803E10001E6D703010001120011
:100EC0000EC36EFF03010E5303E0040E256E02D025
:100ED000020E256E000172EF07F01E6A1D6A27C020
:100EE0000EF3EED7E8EF07F00EC31BF3C1DE01529D
:100EF00047E003011D6B0EC31CF31F6B080E1E6F32
:100F0000000166EC01F002C017F301C016F3040EF5
:100F100003011627000E1723020E1625016E000E80
:100F20001721036E01C0E9FF040E0324EA6EECCF23
:100F300015F3ED52EFCF14F315C3EAFF14C3E9FF25
:100F400010C3E2FF0FC3E1FF12C302F011C301F0AF
:100F5000015202E0022A02D0025206E0E6CFEEFF82
:100F6000012EFCD7022EFAD70EC316F312C318F3C4
:100F700011C317F313C319F30001A5DE015002D00A
:100F8000000E016E1200765310E0020E03010E6F88
:100F9000106B370E0F6F126B76C011F3020E136FCA
:100FA0000001A2DF015201E0766B1200ECDFEFEFEF
:100FB00007F003010D530EE11D2C05D0000136ECA6
:100FC00002F006D003011D50020803E1000185D79D
:100FD000030106D00D51020803E10001E7D7030128
:100FE00000011200243003010B6F0B330B331F0E73
:100FF0000B1724524EE1040100513C0B03010C6F0E
:10100000430E0401001703010C51340825E10401CB
:101010000451800B01E0046B000191D56D98263CD2
:1010200007D003010E6B030E0F6F0001A1DD12D07C
:1010300003010E6B020E0F6F00019ADD2650FE08B1
:1010400009E00301166B186B26C017F3040E196F25
:10105000000139DE1CD003010C51040819E10D6BAD
:1010600000011FDF03010E6B020E0F6F000180DD18
:101070002650FE080CE0263C01D009D00301166B77
:10108000186B26C017F3010E196F00011CDE030157
:1010900022D02450040812E126680D6B000189DF7C
:1010A000263C01D009D00301166B186B26C017F33C
:1010B000020E196F000107DE0DD0030124B406D023
:1010C0000BC30DF30001EDDE05D003010BC30DF3DF
:1010D00000016FDF03010001A1EF08F0A19A255282
:1010E000D8B439D06852D8B436D068A403D069B423
:1010F00017EF01F06DB22FD068AA03D069BA34EFB0
:1011000001F068A203D069B23BEF01F068A003D000
:1011100069B014EF02F068A803D069B829EF02F0B3
:1011200068AC03D069BC2EEF02F003010A6B68A61D
:101130000AD069A608D06CCF24F0000102EC00F0C0
:1011400051D703D0030106D0000103010A510A2B35
:101150000308EDE200013CEF00F0C15101082BE370
:1011600003E1C051150827E30201EE2D01D002D0A2
:10117000000121D0D8900001C035026EC135036E48
:101180000250C20FE96E000E0320EA6EBFC01DF3CD
:10119000BEC01CF303011F6BB90E1E6F000166EC8D
:1011A00001F001C0EFFF02C0ECFFBF6BBE6BC02BB4
:1011B000D8B4C12B04D0020E0201EE6F0001F294EC
:1011C0003CEF00F00201EE2D05D00001BE2BD8B49B
:1011D000BF2B0201F29200013CEF00F0234F4B0ABB
:1011E0000000234F4E0A0000234F46460A00234FBB
:1011F0004E0A0000234F46460A00235245414459F7
:101200000A0023425553590A00002346494E4953C8
:101210004845440A0000234E4F444154410A00000F
:101220006D926D6A696A080E6F6E94503009020102
:10123000946E256A196AF2BE198EF29E0001FCECCA
:1012400001F019BEF28E26EF09F0EAD752EF09F04D
:10125000196AF2BE198EF29EFCEC01F019BEF28EF4
:101260006D926D6A6D8C00D000D000006D9C140EE4
:101270006F6E696A6D86010E256E42EF09F06DB6DC
:1012800001D0E6D7252C0BD06DBA09D0686A696AFF
:10129000A08AC00EF212110E696E020E256E53EF77
:1012A00009F0D3D7ECD725500208FCE1D8EF0AF0BB
:1012B000020EEA6EF00EE96EEF500EE00F0E016EB8
:1012C000006A002EFED7012EFBD78F0E006E002E77
:1012D000FED70000EF2EF2D7120093948A94EFC24B
:1012E000F0F2E6DF93948A84EFC2F0F2E1DFE7EFF9
:1012F0000AF0F298F29A779377B302D08A9601D0E7
:101300008A869396EEEF0AF021B001D0FDD72350E4
:10131000232AA30FE96E040EEA6ED8B0EA2AEFCFB3
:10132000F1F22250235C07E3196AF2BE198EF29E95
:10133000A2DD19BEF28E0201F1C201F0000112001D
:10134000BC6BBC513F080AE3036ABC517C0FE96ED9
:10135000000E0320EA6EEF6ABC2BF3D721A036D033
:10136000D3DF01C0BDF0BD5123082CE1BC6B036A83
:10137000BC517C0FE96E000E0320EA6EBDC0EFFF8A
:1013800021A013D0BC2B036ABC517C0F016E000E50
:10139000032201C0EFF203C0F0F20001B5DFF0C29A
:1013A000EAFFEFC2E9FF01C0EFFF036ABC517C0F07
:1013B000E96E000E0320EA6EEF500A08E1E1010E2B
:1013C000016E06D0000E016E03D002D0000E016E39
:1013D000F1EF0AF00201F891A0BAF881A09A000199
:1013E00076513E0802E23E0E766F7651762B036A06
:1013F000370FE96E000E0320EA6EF7C2EFFF02011D
:10140000F8A101D0A08A000109EF0AF0F6C2F7F2B4
:10141000E1D7196AF2BE198EF29EB5DD19BEF28EC1
:101420001AEF0AF03F0ED880765501E1FBD7F5C2DE
:10143000F6F2ECD712000900F5520CE0F6CFEFF20D
:10144000F7CFF0F2F5CFF5F2EDDFEFC2F6FFF0C225
:10145000F7FFF1D71200010E0201EE6F0001BF6B22
:10146000BE6B7783C16BC06B880ED56EF288F28A33
:10147000C00EF21277B302D08A9601D08A86939674
:1014800057EF0BF0777377B302D08A9601D08A8634
:10149000939610EF0BF00201F06B360EEF6F230EF8
:1014A000F56F0001BFDF0201F26BF16BF251010831
:1014B0005EE303E1F15115085AE3F36BF0C2F4F275
:1014C000F0C2F3F2F46BF0C2F5F20001ABDF0201FF
:1014D000EFC2F3F2F46BEFC2F5F20001A3DF2C0EC2
:1014E0000201F56F00019EDFD8900201F135026E16
:1014F000F235036E0250C20FE96E000E0320EA6E51
:10150000ECCFF4F2ED52EFCFF3F2F36BF4C2F3F25F
:10151000F46BF3C2F5F2000185DFD8900201F135DA
:10152000026EF235036E0250C20FE96E000E032008
:10153000EA6EECCFF4F2ED52EFCFF3F2F46BF3C2BC
:10154000F5F200016FDF360E0201EF27000EF023E7
:10155000F151150803E1F22D01D005D0240EF56FED
:10156000000160DF0201F12BD8B4F22B9FD70A0EE5
:10157000F56F000157DF4EEF0BF0F86AD09E078E33
:10158000BC6BBD6B7793BF6BBE6BC16BC06B020155
:10159000EE6BC150C00B0F09C16E070EB46E1A6A14
:1015A000040E1B6E0E0E1C6E00017A6B7B6B79D6DF
:1015B000196AF2BE198EF29EBEEC01F019BEF28ECF
:1015C00077B106D02C0E0201EF6F000186D6F8D756
:1015D0000201EE51020803E100018BD60201000175
:1015E000AFD60152D8B463D07C512308D8A45FD0C1
:1015F0007E510A08D8A45BD07D51310A09E0030A64
:101600000EE0010A1BE0070A27E0010A41E04FD083
:10161000DC0EF66E110EF76E0EDF1DD748D032D7F6
:1016200077B306D0E20EF66E110EF76E04DF05D02A
:10163000E80EF66E110EF76EFEDE39D077B306D0E7
:10164000EE0EF66E110EF76EF6DE05D0F40EF66EA7
:10165000110EF76EF0DE2BD00201EE51000A0001F0
:1016600005E0010A09E0030A0DE011D0FA0EF66E5A
:10167000110EF76EE0DE0BD0020EF66E120EF76E54
:10168000DADE05D00A0EF66E120EF76ED4DE0FD03B
:101690000201EE51020804E10001FDD607D002016B
:1016A000160EF66E120EF76E0001C5DE00D090D752
:0216B000030035
:020000040030CA
:0E00000024CE381E0085A1000FC00FE00F4077
:00000001FF
;PIC18F4550
;CRC=5BBB  CREATED="02-abr.-22 18:27"
