:10000000BDEF0AF068961200046ED8CF05F0E0CF7D
:1000100006F00001E9CF0CF0EACF07F0E1CF08F0DD
:10002000E2CF09F0D9CF0AF0DACF0BF0F3CF12F01C
:10003000F4CF13F0FACF14F0F5CF15F0F6CF16F099
:10004000F7CF17F000C00EF001C00FF002C010F0A3
:1000500003C011F0F2AA30EF00F0F2B4ADEF08F0F7
:10006000F2A836EF00F0F2B2E2EF08F0A0AA3CEFFF
:1000700000F0A1BA6EEF08F00EC000F00FC001F062
:1000800010C002F011C003F00CC0E9FF07C0EAFF86
:10009000078E08C0E1FF09C0E2FF0AC0D9FF0BC00C
:1000A000DAFF12C0F3FF13C0F4FF14C0FAFF15C04B
:1000B000F5FF16C0F6FF17C0F7FF045006C0E0FFBB
:1000C00005C0D8FF1000F76AD60FF66E000EF722B3
:1000D0000900F5501200040309040A036D006900C9
:1000E0006B0065000A037500610072007400F76A16
:1000F000FE0FF66E000EF7220900F5501200000305
:1001000002FFFFFFFFFFFFFFFFFFFFFFFFFFF76A99
:100110001E0FF66E010EF7220900F550120000FFC7
:1001200002FFFFFFFFFFFFFFFFFFFFFFFFFFF76A79
:100130003E0FF66E010EF7220900F5501200400046
:100140000B00400000000000000000000000000064
:100150000000000000000000000000000000F76A3E
:100160006E0FF66E010EF7220900F55012004000E6
:10017000000040000000000000000000000000003F
:100180000000000000000000000000000000F76A0E
:100190009E0FF66E010EF7220900F55012000902BB
:1001A0004300020100803209040000010202010044
:1001B0000524001001042402020524060001052480
:1001C000010001070581030B00FA09040100020A7E
:1001D00000000007050202400001070582024000FE
:1001E0000100F76AF20FF66E010EF7220900F550D2
:1001F00012000200F76A040FF66E020EF7220900E1
:10020000F550120012171B20FFFFFFFFF76A1C0FAB
:10021000F66E020EF7220900F550120012011001CD
:1002200002000040D8040A000001010200016D92A2
:10023000699468A402D06894FCD77AEF08F0400E65
:100240000401016F040E0301106F180E10C303F4B4
:10025000E8CF02F4880E0401006F046B040E076FF0
:10026000580E066F0001120070A002D0E8DF7090F7
:10027000689A81EF08F06A6A689286EF08F00301D5
:100280001C911BBF1C811B9F1B51100803E2000E19
:10029000016E1AD01CA10DD0036A1B51000127DF8B
:1002A000FF0802E1000E01D0010E016E03010CD027
:1002B0000BD0036A1B5100012ADFFF0802E1000E88
:1002C00001D0010E016E0301000112000301205153
:1002D0002203F3CF01F0F4CF00F02303F350002604
:1002E00021512203F3500020026E00011200036A24
:1002F00003011A51700FE96E0F0E0320EA6EEF6AC8
:100300001AC31BF30001BBDF015228E00301216B7C
:100310001AC320F3236B080E226F0001D7DF0301FD
:1003200001C0E9FF040E0224EA6EEF6A216B1AC3D2
:1003300020F3236B080E226F0001C8DF02C01CF3FC
:1003400001C01BF3040E03011B27000E1C231BC35B
:10035000E9FF040E1C25EA6EEF6A00011200010E8F
:100360000301196F19510F0807E319C31AF30001AC
:10037000BEDF0301192BF6D7000112000301136B36
:10038000126B250E116F800E106FEA6A2E0EE96E49
:10039000030EE26E100EE16E020E016EE6CFEEFF6E
:1003A000012EFCD7306A316A106BEA6A320EE96EB0
:1003B000030EE26E100EE16EE6CFEEFF106BEA6AFE
:1003C000330EE96E030EE26E100EE16EE6CFEEFF25
:1003D000080E106FEA6A340EE96E030EE26E100E1C
:1003E000E16EE6CFEEFF0001786B7791366A356AF1
:1003F000766B2190796B12002B6A2A6A03010F6BCE
:100400000F5101080AE3036A0F512C0FE96E000E29
:100410000320EA6EEF6A0F2BF3D70001AFDF1E6AED
:10042000010E1F6E1D6A12006A6A686A9F0E6B6E6B
:100430003D0E696E6E6A93DFDFDF160E706E68A682
:1004400002D0E0DDFCD76D98FADE030E256E8BEF4F
:1004500008F0698468986D8290EF08F0689C95EFC9
:1004600008F014C326F01200266812000301126B74
:100470002A502B1033E012513F0830E32050000A7D
:10048000000105E0020A0AE0010A0FE014D029C0C9
:1004900003F028507CDEE8CF13F30DD029C003F021
:1004A000285011DEE8CF13F306D029C003F02850FE
:1004B000ADDEE8CF13F3282AD8B4292A2A50D8B4BD
:1004C0002B062A0603011251122B580FE96E040E57
:1004D000EA6ED8B0EA2A13C3EFFFCAD72A502B100E
:1004E00004E11251400801E01D6A12C314F3000137
:1004F000B8DF1200296A286A206A04011B51010A28
:10050000000107E0030A0BE0010A0DE0220A22E0E5
:100510003AD02B6A120E2A6E030E206E36D02B6A4A
:10052000430E2A6E32D0020E206E036A04011A5165
:100530001A0FE96E000E0320EA6E296AEFCF28F049
:1005400029C003F028500001BEDD036A2A6E03C0F3
:100550002BF01BD0036A04011A5100014BDE036A21
:10056000286E03C029F0283C02D029520AE029C095
:1005700003F028500CDE036A2A6E03C02BF005D06E
:1005800002D072DF11D070DF0FD004011F5308E1D9
:100590002B5203E12A501E5D03E22B6A1EC42AF08F
:1005A000010E1D6E000162DF27EF04F003011153FD
:1005B00006E1040E256E0001D2DEEAD00301050E2D
:1005C000256E040E146F980E136F010E126F1251E8
:1005D0000F08D8A0DDD012C31AF3000188DE030192
:1005E000156B036A1251000192DDFF0867E0040EEB
:1005F0000301156FD8901235036A0001B0DD0900C0
:10060000F5CF03F00301166F03C017F3216B12C37C
:1006100020F3236B080E226F000158DE01C019F38E
:10062000010E03010124016E000E0220036E01C0C1
:10063000E9FF040E0324EA6E16C3EFFF216B12C319
:1006400020F3236B080E226F000140DE01C019F376
:10065000020E03010124016E000E0220036E01C090
:10066000E9FF040E0324EA6E14C3ECFFED5213C33A
:10067000EFFFD8901235036A000171DD0900F5CF54
:1006800003F00301132703501423880E186F17A1DA
:1006900001D0188117A301D01883216B12C320F356
:1006A000236B080E226F000111DE030101C0E9FF78
:1006B000040E0224EA6E18C3EFFF0001036A03016F
:1006C0001251000114DDFF0848E003011583216B7E
:1006D00012C320F3236B080E226F0001F7DD02C066
:1006E0001AF301C019F3040E03011927000E1A238F
:1006F000020E1925016E000E1A21036E01C0E9FFDA
:10070000040E0324EA6E14C3ECFFED5213C3EFFF93
:10071000D8901235036A00010ADD0900F5CF03F015
:100720000301132703501423216B12C320F3236BFF
:10073000080E226F0001CADD02C01AF301C019F3CE
:10074000040E03011927000E1A2319C3E9FF040E32
:100750001A25EA6E400EEF6E0001030115510608DE
:1007600002E10E0E156F036A12510001C0DC010890
:1007700003E0030115890001036A03011251700FA0
:10078000E96E0F0E0320EA6E15C3EFFF122B1FD781
:1007900000011FEF04F004011951000A00010DE0EF
:1007A000010A15E0020A21E0060A2CE0030A33E000
:1007B0000E0A33E0010A39E049D01FC058F40401A1
:1007C000596B020E0301146F00014BDE40D004018F
:1007D0001A2D08D0010E1F160301146B000141DE13
:1007E00003D00401000140DE32D004011A2D07D0ED
:1007F0001F820301146B000134DE03D004010001E9
:1008000033DE25D0020E1D6E1AC427F00301146BCF
:10081000000127DE1CD06ED61AD01EC058F4010E7F
:100820000301146F00011DDE12D004011A510108EA
:100830000BE31AC41EF01AC411F30001B7D603016A
:10084000146B00010EDE0401000101D00DDEB6EFD5
:1008500005F01EC011F304011951000A000105E062
:100860000A0A0CE0010A2CE041D00401586B596BD4
:10087000020E0301146F0001F4DD39D0030111539E
:100880001CE0010E115D036A0001ABDC016E040186
:100890001C5DD8A002D0030110D0036A1C512C0F9C
:1008A000E96E000E0320EA6EEFCF58F4010E03014B
:1008B000146F0001D6DD03D003010001D5DD17D090
:1008C0000301115310E0036A04011C512C0FE96E5F
:1008D000000E0320EA6E1AC4EFFF0301146B00013F
:1008E000C0DD03D003010001BFDD01D0BDDDB6EFE7
:1008F00005F00301129111BF1281119F12A119D0AD
:10090000216B11C320F3236B080E226F0001DEDC84
:1009100002C014F301C013F3040E03011327000EE9
:10092000142313C3E9FF040E1425EA6E880EEF6E3C
:100930000FD0216B11C320F3236B080E226F00012F
:10094000C5DC030101C0E9FF040E0224EA6EEF6A70
:1009500000012BEF05F00301129111BF1281119FCD
:1009600012A119D0216B11C320F3236B080E226F43
:100970000001ACDC02C014F301C013F3040E030148
:100980001327000E142313C3E9FF040E1425EA6E87
:10099000840EEF6E10D0216B11C320F3236B080E71
:1009A000226F000193DC030101C0E9FF040E022461
:1009B000EA6E840EEF6E000133EF05F00301129131
:1009C00011BF1281119F12A119D0216B11C320F305
:1009D000236B080E226F000179DC02C015F301C001
:1009E00014F3040E03011427000E152314C3E9FFAA
:1009F000040E1525EA6EEFCF13F310D0216B11C34F
:100A000020F3236B080E226F000160DC030101C09C
:100A1000E9FF040E0224EA6EEFCF13F313AF02D006
:100A200013B502D0000E01D0010E016E00013FEFA0
:100A300005F01CC41BF323DC01522EE00401195104
:100A4000010A000105E0020A0BE0030A11E023D0CD
:100A50001CC411F34ED70301146B000102DD1CD03E
:100A60001CC411F378D70301146B0001FADC14D015
:100A70000401586B596B1CC411F300019FD701523C
:100A800004E0010E0401586F0001020E0301146F0F
:100A90000001E7DC01D0E8DCB6EF05F0FE0E266EC3
:100AA000120004011C2D01D002D01C5345E11FC4CB
:100AB00012F31EC411F31951000A00010BE0010AE0
:100AC0000DE0210A0FE0010A12E0030A23E0010A07
:100AD00028E030D0010E796FE1DF2DD011C314F37F
:100AE000C0DC29D0020E796F7781D8DF24D0040EC4
:100AF000EA6E580EE96EE26A2E0EE16E070E016E86
:100B0000E6CFEEFF012EFCD7070E0301146F0001A4
:100B1000A8DC11D01AC478F00301146B0001A1DC29
:100B20000AD01AC436F01BC435F00301146B00015F
:100B300098DC01D099DC04010001B6EF05F01D6AD4
:100B4000040118517F0B000A000107E0010A07E0C9
:100B5000030A07E0230A07E008D01DD607D079D69C
:100B600005D067D703D09DD701D07EDC0EEF08F00B
:100B70000301216B12C320F3236B080E226F0001C7
:100B800066EC01F0030101C0E9FF040E0224EA6EE5
:100B9000EFCF14F31351020806E114AD02D0136B2A
:100BA00002D0010E136F135103081CE1840E146F61
:100BB000216B12C320F3236B080E226F000166EC39
:100BC00001F002C018F301C017F3040E0301172748
:100BD000000E182317C3E9FF040E1825EA6E840ED1
:100BE000EF6E07D0132D03D0C80E146F02D0880EFD
:100BF000146FD8901235036A0001AFEC00F00900C1
:100C0000F5CF03F00301156F03C016F3216B12C378
:100C100020F3236B080E226F000166EC01F001C087
:100C200017F3010E03010124016E000E0220036E72
:100C300001C0E9FF040E0324EA6E15C3EFFF16A1FD
:100C400001D0148116A301D01483216B12C320F3A9
:100C5000236B080E226F000166EC01F0030101C056
:100C6000E9FF040E0224EA6E14C3EFFF0001120034
:100C7000036A03011F51700FE96E0F0E0320EA6E25
:100C8000EF521BE0216B1FC320F3236B080E226F72
:100C9000000166EC01F002C021F301C020F3040E54
:100CA00003012027000E212320C3E9FF040E212584
:100CB000EA6EEFCF22F322AF02D0000E01D0010E78
:100CC000016E000112001AC31FF3D2DF0152D8B423
:100CD00087D00301216B1AC320F3236B080E226F08
:100CE000000166EC01F002C020F301C01FF3040E06
:100CF00003011F27000E2023010E1F25016E000E89
:100D00002021036E01C0E9FF040E0324EA6E1BC319
:100D1000EFFF1D51020820E1216B1AC320F3236B62
:100D2000080E226F000166EC01F002C020F301C042
:100D30001FF3040E03011F27000E20231FC3E9FF2A
:100D4000040E2025EA6EEFCF1EF31EAD02D01D6B00
:100D500002D0010E1D6F1AD01D51040817E1216B3E
:100D60001AC320F3236B080E226F000166EC01F01A
:100D7000030101C0E9FF040E0224EA6EEFCF1EF367
:100D80001EAD03D0010E1D6F01D01D6B1D2D03D0B4
:100D9000C80E1E6F02D0880E1E6F1CA101D01E81CE
:100DA0001CA301D01E83216B1AC320F3236B080EF2
:100DB000226F000166EC01F002C020F301C01FF3B6
:100DC000040E03011F27000E20231FC3E9FF040E9A
:100DD0002025EA6E1EC3EFFF010E016E04D0000154
:100DE000000E016E0301000112007951010A03E0B7
:100DF000030A08E01BD00301146B000131EC02F080
:100E0000796B15D0EA6A2E0EE96E040EE26E180EAA
:100E1000E16E070E016EE6CFEEFF012EFCD7796B77
:100E20000301146B000131EC02F001D0796B56EF35
:100E300007F00301216B12C320F3236B080E226F0E
:100E4000000166EC01F002C014F301C013F3010EBF
:100E500003010124016E000E0220036E01C0E9FFB0
:100E6000040E0324EA6E036AEFCF01F003C002F020
:100E700000014AEF07F02190020E0301126F136F79
:100E8000000176DE12002180236A020E0301126F38
:100E90000001CFD701C022F0225201E1ECDF5DEF6B
:100EA00007F00301115304E100019FD706D00301AD
:100EB0001151020803E10001E6D70301000112000D
:100EC00012C36EFF0301125303E0040E256E02D01D
:100ED000020E256E000172EF07F01E6A1D6A27C020
:100EE00012F3EED7E8EF07F012C31FF3C1DE015291
:100EF00047E00301216B12C320F3236B080E226F1E
:100F0000000166EC01F002C01BF301C01AF3040EED
:100F100003011A27000E1B23020E1A25016E000E74
:100F20001B21036E01C0E9FF040E0324EA6EECCF1F
:100F300019F3ED52EFCF18F319C3EAFF18C3E9FF15
:100F400014C3E2FF13C3E1FF16C302F015C301F09F
:100F5000015202E0022A02D0025206E0E6CFEEFF82
:100F6000012EFCD7022EFAD712C31AF316C31CF3B4
:100F700015C31BF317C31DF30001A5DE015002D0FA
:100F8000000E016E1200765310E0020E0301126F84
:100F9000146B370E136F166B76C015F3020E176FB6
:100FA0000001A2DF015201E0766B1200ECDFEFEFEF
:100FB00007F0030111530EE11D2C05D0000136ECA2
:100FC00002F006D003011D50020803E1000185D79D
:100FD000030106D01151020803E10001E7D7030124
:100FE00000011200243003010F6F0F330F331F0E67
:100FF0000F1724524EE1040100513C0B0301106F06
:10100000430E0401001703011051340825E10401C7
:101010000451800B01E0046B000191D56D98263CD2
:1010200007D00301126B030E136F0001A1DD12D074
:101030000301126B020E136F00019ADD2650FE08A9
:1010400009E003011A6B1C6B26C01BF3040E1D6F15
:10105000000139DE1CD003011051040819E1116BA5
:1010600000011FDF0301126B020E136F000180DD10
:101070002650FE080CE0263C01D009D003011A6B73
:101080001C6B26C01BF3010E1D6F00011CDE03014B
:1010900022D02450040812E12668116B000189DF78
:1010A000263C01D009D003011A6B1C6B26C01BF330
:1010B000020E1D6F000107DE0DD0030124B406D01F
:1010C0000FC311F30001EDDE05D003010FC311F3CF
:1010D00000016FDF03010001A1EF08F0A19A255282
:1010E000D8B439D06852D8B436D068A403D069B423
:1010F00017EF01F06DB22FD068AA03D069BA34EFB0
:1011000001F068A203D069B23BEF01F068A003D000
:1011100069B014EF02F068A803D069B829EF02F0B3
:1011200068AC03D069BC2EEF02F003010E6B68A619
:101130000AD069A608D06CCF24F0000102EC00F0C0
:1011400051D703D0030106D0000103010E510E2B2D
:101150000308EDE200013CEF00F0C55101082BE36C
:1011600003E1C451150827E30201F22D01D002D09A
:10117000000121D0D8900001C435026EC535036E40
:101180000250C60FE96E000E0320EA6EC3C021F3C1
:10119000C2C020F30301236BB90E226F000166EC7D
:1011A00001F001C0EFFF02C0ECFFC36BC26BC42BA8
:1011B000D8B4C52B04D0020E0201F26F0001F294E4
:1011C0003CEF00F00201F22D05D00001C22BD8B493
:1011D000C32B0201F29200013CEF00F0234F4B0AB7
:1011E0000000234F4E0A0000234F46460A00234FBB
:1011F0004E0A0000234F46460A00235245414459F7
:101200000A0023425553590A00002346494E4953C8
:101210004845440A0000234E4F444154410A00000F
:101220006D926D6A696A080E6F6E94503009020102
:10123000946E256A196AF2BE198EF29E0001FCECCA
:1012400001F019BEF28E26EF09F0EAD752EF09F04D
:10125000196AF2BE198EF29EFCEC01F019BEF28EF4
:101260006D926D6A6D8C00D000D000006D9C140EE4
:101270006F6E696A6D86010E256E42EF09F06DB6DC
:1012800001D0E6D7252C0BD06DBA09D0686A696AFF
:10129000A08AC00EF212110E696E020E256E53EF77
:1012A00009F0D3D7ECD725500208FCE1ECEF0AF0A7
:1012B000020EEA6EF40EE96EEF500EE00F0E016EB4
:1012C000006A002EFED7012EFBD78F0E006E002E77
:1012D000FED70000EF2EF2D7120093948A94F3C247
:1012E000F4F2E6DF93948A84F3C2F4F2E1DFFBEFD9
:1012F0000AF0F298F29A779377B302D08A9601D0E7
:101300008A86939604EF0BF021B001D0FDD72350CD
:10131000232AA30FE96E040EEA6ED8B0EA2AEFCFB3
:10132000F5F22250235C07E3196AF2BE198EF29E91
:10133000A2DD19BEF28E0201F5C201F00001120019
:10134000C06BC0513F080AE3036AC0517E0FE96ECB
:10135000000E0320EA6EEF6AC02BF3D721A036D02F
:10136000D3DF01C0C1F0C15123082CE1C06B036A77
:10137000C0517E0FE96E000E0320EA6EC1C0EFFF80
:1013800021A013D0C02B036AC0517E0F016E000E46
:10139000032201C0F3F203C0F4F20001B5DFF4C28E
:1013A000EAFFF3C2E9FF01C0EFFF036AC0517E0FFD
:1013B000E96E000E0320EA6EEF500A08E1E1010E2B
:1013C000016E06D0000E016E03D002D0000E016E39
:1013D00007EF0BF00201FC91A0BAFC81A09A00017A
:1013E00076513E0802E23E0E766F7651762B036A06
:1013F000370FE96E000E0320EA6EFBC2EFFF020119
:10140000FCA101D0A08A000109EF0AF0FAC2FBF2A8
:10141000E1D7196AF2BE198EF29EB5DD19BEF28EC1
:101420001AEF0AF03F0ED880765501E1FBD7F9C2DA
:10143000FAF2ECD712000900F5520CE0F6CFF3F205
:10144000F7CFF4F2F5CFF9F2EDDFF3C2F6FFF4C215
:10145000F7FFF1D71200010E0201F26F0001C36B1A
:10146000C26B7783C56BC46B880ED56EF288F28A27
:10147000C00EF21277B302D08A9601D08A86939674
:101480006DEF0BF0777377B302D08A9601D08A861E
:10149000939626EF0BF00201F46B360EF36F230EDA
:1014A000F96F0001BFDF0201F66BF56BF651010821
:1014B0005EE303E1F55115085AE3F76BF4C2F8F265
:1014C000F4C2F7F2F86BF4C2F9F20001ABDF0201EB
:1014D000F3C2F7F2F86BF3C2F9F20001A3DF2C0EAE
:1014E0000201F96F00019EDFD8900201F535026E0E
:1014F000F635036E0250C60FE96E000E0320EA6E49
:10150000ECCFF8F2ED52EFCFF7F2F76BF8C2F7F24B
:10151000F86BF7C2F9F2000185DFD8900201F535CA
:10152000026EF635036E0250C60FE96E000E032000
:10153000EA6EECCFF8F2ED52EFCFF7F2F86BF7C2AC
:10154000F9F200016FDF360E0201F327000EF423DB
:10155000F551150803E1F62D01D005D0240EF96FE1
:10156000000160DF0201F52BD8B4F62B9FD70A0EDD
:10157000F96F000157DF64EF0BF0F86AD09E078E19
:10158000C06BC16B7793C36BC26BC56BC46B02013D
:10159000F26BC150C00B0F09C16E070EB46E030E83
:1015A00000017D6F250E7C6F0301266BD70E256F22
:1015B000050E286F230E276F020E0501246FD90E2A
:1015C000236F266B256B00011A6A040E1B6E0E0E2C
:1015D0001C6E7A6B7B6B65D6196AF2BE198EF29E11
:1015E000BEEC01F019BEF28E77B106D02C0E0201CE
:1015F000F36F000172D6F8D70201F22D00D0F2513C
:10160000020803E1000175D60201000199D60152DA
:10161000D8B463D07E512308D8A45FD080510A0883
:10162000D8A45BD07F51310A09E0030A0EE0010A19
:101630001BE0070A27E0010A41E04FD0DC0EF66EFE
:10164000110EF76EF8DE07D748D01CD777B306D057
:10165000E20EF66E110EF76EEEDE05D0E80EF66EB7
:10166000110EF76EE8DE39D077B306D0EE0EF66EC7
:10167000110EF76EE0DE05D0F40EF66E110EF76E69
:10168000DADE2BD00201F251000A000105E0010A66
:1016900009E0030A0DE011D0FA0EF66E110EF76E96
:1016A000CADE0BD0020EF66E120EF76EC4DE05D047
:1016B0000A0EF66E120EF76EBEDE0FD00201F25168
:1016C000020804E10001E7D607D00201160EF66E0B
:0E16D000120EF76E0001AFDE00D08ED70300C1
:020000040030CA
:0E00000024CE381E008581000FC00FE00F4097
:00000001FF
;PIC18F2550
;CRC=CE2D  CREATED="02-abr.-22 18:03"
