:10000000B7EF0AF068961200046ED8CF05F0E0CF83
:1000100006F00001E9CF0CF0EACF07F0E1CF08F0DD
:10002000E2CF09F0D9CF0AF0DACF0BF0F3CF12F01C
:10003000F4CF13F0FACF14F0F5CF15F0F6CF16F099
:10004000F7CF17F000C00EF001C00FF002C010F0A3
:1000500003C011F0F2AA30EF00F0F2B4ADEF08F0F7
:10006000F2A836EF00F0F2B2DCEF08F0A0AA3CEF05
:1000700000F0A1BA6EEF08F00EC000F00FC001F062
:1000800010C002F011C003F00CC0E9FF07C0EAFF86
:10009000078E08C0E1FF09C0E2FF0AC0D9FF0BC00C
:1000A000DAFF12C0F3FF13C0F4FF14C0FAFF15C04B
:1000B000F5FF16C0F6FF17C0F7FF045006C0E0FFBB
:1000C00005C0D8FF1000F76AD60FF66E000EF722B3
:1000D0000900F5501200040309040A0368006F00C8
:1000E0006C0061000A037500610072007400F76A19
:1000F000FE0FF66E000EF7220900F5501200000305
:1001000002FFFFFFFFFFFFFFFFFFFFFFFFFFF76A99
:100110001E0FF66E010EF7220900F550120000FFC7
:1001200002FFFFFFFFFFFFFFFFFFFFFFFFFFF76A79
:100130003E0FF66E010EF7220900F5501200400046
:100140000B00400000000000000000000000000064
:100150000000000000000000000000000000F76A3E
:100160006E0FF66E010EF7220900F55012004000E6
:10017000000040000000000000000000000000003F
:100180000000000000000000000000000000F76A0E
:100190009E0FF66E010EF7220900F55012000902BB
:1001A0004300020100803209040000010202010044
:1001B0000524001001042402020524060001052480
:1001C000010001070581030B00FA09040100020A7E
:1001D00000000007050202400001070582024000FE
:1001E0000100F76AF20FF66E010EF7220900F550D2
:1001F00012000200F76A040FF66E020EF7220900E1
:10020000F550120012171B20FFFFFFFFF76A1C0FAB
:10021000F66E020EF7220900F550120012011001CD
:1002200002000040D8040A000001010200016D92A2
:10023000699468A402D06894FCD77AEF08F0400E65
:100240000401016F040E0201D86F180ED8C203F426
:10025000E8CF02F4880E0401006F046B040E076FF0
:10026000580E066F0001120070A002D0E8DF7090F7
:10027000689A81EF08F06A6A689286EF08F00201D6
:10028000E491E3BFE481E39FE351100803E2000E31
:10029000016E1AD0E4A10DD0036AE351000127DFFB
:1002A000FF0802E1000E01D0010E016E02010CD028
:1002B0000BD0036AE35100012ADFFF0802E1000EC0
:1002C00001D0010E016E0201000112000201E8518D
:1002D000EA03F3CF01F0F4CF00F0EB03F350002674
:1002E000E951EA03F3500020026E00011200036A94
:1002F0000201E251700FE96E0F0E0320EA6EEF6A01
:10030000E2C2E3F20001BBDF015228E00201E96B27
:10031000E2C2E8F2EB6B080EEA6F0001D7DF0201E0
:1003200001C0E9FF040E0224EA6EEF6AE96BE2C243
:10033000E8F2EB6B080EEA6F0001C8DF02C0E4F2DE
:1003400001C0E3F2040E0201E327000EE423E3C23E
:10035000E9FF040EE425EA6EEF6A00011200010EC7
:100360000201E16FE1510F0807E3E1C2E2F200018F
:10037000BEDF0201E12BF6D7000112000201DB6BA8
:10038000DA6B250ED96F800ED86FEA6A2E0EE96EF1
:10039000020EE26ED80EE16E020E016EE6CFEEFFA7
:1003A000012EFCD7306A316AD86BEA6A320EE96EE8
:1003B000020EE26ED80EE16EE6CFEEFFD86BEA6A6F
:1003C000330EE96E020EE26ED80EE16EE6CFEEFF5E
:1003D000080ED86FEA6A340EE96E020EE26ED80E8D
:1003E000E16EE6CFEEFF0001786B7791366A356AF1
:1003F000766B2190796B12002B6A2A6A0201D76B07
:10040000D75101080AE3036AD7512C0FE96E000E99
:100410000320EA6EEF6AD72BF3D70001AFDF1E6A25
:10042000010E1F6E1D6A12006A6A686A9F0E6B6E6B
:100430003D0E696E6E6A93DFDFDF160E706E68A682
:1004400002D0E0DDFCD76D98FADE030E256E8BEF4F
:1004500008F0698468986D8290EF08F0689C95EFC9
:1004600008F0DCC226F01200266812000201DA6BE6
:100470002A502B1033E0DA513F0830E32050000AB5
:10048000000105E0020A0AE0010A0FE014D029C0C9
:1004900003F028507CDEE8CFDBF20DD029C003F05A
:1004A000285011DEE8CFDBF206D029C003F0285037
:1004B000ADDEE8CFDBF2282AD8B4292A2A50D8B4F6
:1004C0002B062A060201DA51DA2B580FE96E040EC8
:1004D000EA6ED8B0EA2ADBC2EFFFCAD72A502B1047
:1004E00004E1DA51400801E01D6ADAC2DCF20001E1
:1004F000B8DF1200296A286A206A04011B51010A28
:10050000000107E0030A0BE0010A0DE0220A22E0E5
:100510003AD02B6A120E2A6E030E206E36D02B6A4A
:10052000430E2A6E32D0020E206E036A04011A5165
:100530001A0FE96E000E0320EA6E296AEFCF28F049
:1005400029C003F028500001BEDD036A2A6E03C0F3
:100550002BF01BD0036A04011A5100014BDE036A21
:10056000286E03C029F0283C02D029520AE029C095
:1005700003F028500CDE036A2A6E03C02BF005D06E
:1005800002D072DF11D070DF0FD004011F5308E1D9
:100590002B5203E12A501E5D03E22B6A1EC42AF08F
:1005A000010E1D6E000162DF27EF04F00201D95336
:1005B00006E1040E256E0001D2DEEAD00201050E2E
:1005C000256E040EDC6F980EDB6F010EDA6FDA51C8
:1005D0000F08D8A0DDD0DAC2E2F2000188DE020105
:1005E000DD6B036ADA51000192DDFF0867E0040E5B
:1005F0000201DD6FD890DA35036A0001B0DD090031
:10060000F5CF03F00201DE6F03C0DFF2E96BDAC25F
:10061000E8F2EB6B080EEA6F000158DE01C0E1F270
:10062000010E02010124016E000E0220036E01C0C2
:10063000E9FF040E0324EA6EDEC2EFFFE96BDAC2C3
:10064000E8F2EB6B080EEA6F000140DE01C0E1F258
:10065000020E02010124016E000E0220036E01C091
:10066000E9FF040E0324EA6EDCC2ECFFED52DBC2AC
:10067000EFFFD890DA35036A000171DD0900F5CF8C
:1006800003F00201DB270350DC23880EE06FDFA1BB
:1006900001D0E081DFA301D0E083E96BDAC2E8F2A8
:1006A000EB6B080EEA6F000111DE020101C0E9FFE9
:1006B000040E0224EA6EE0C2EFFF0001036A0201A9
:1006C000DA51000114DDFF0848E00201DD83E96B27
:1006D000DAC2E8F2EB6B080EEA6F0001F7DD02C048
:1006E000E2F201C0E1F2040E0201E127000EE22372
:1006F000020EE125016E000EE221036E01C0E9FF4A
:10070000040E0324EA6EDCC2ECFFED52DBC2EFFF05
:10071000D890DA35036A00010ADD0900F5CF03F04D
:100720000201DB270350DC23E96BDAC2E8F2EB6B52
:10073000080EEA6F0001CADD02C0E2F201C0E1F278
:10074000040E0201E127000EE223E1C2E9FF040EDC
:10075000E225EA6E400EEF6E00010201DD5106084F
:1007600002E10E0EDD6F036ADA510001C0DC010800
:1007700003E00201DD890001036A0201DA51700F12
:10078000E96E0F0E0320EA6EDDC2EFFFDA2B1FD7F2
:1007900000011FEF04F004011951000A00010DE0EF
:1007A000010A15E0020A21E0060A2CE0030A33E000
:1007B0000E0A33E0010A39E049D01FC058F40401A1
:1007C000596B020E0201DC6F00014BDE40D00401C8
:1007D0001A2D08D0010E1F160201DC6B000141DE4C
:1007E00003D00401000140DE32D004011A2D07D0ED
:1007F0001F820201DC6B000134DE03D00401000122
:1008000033DE25D0020E1D6E1AC427F00201DC6B08
:10081000000127DE1CD06ED61AD01EC058F4010E7F
:100820000201DC6F00011DDE12D004011A51010823
:100830000BE31AC41EF01AC4D9F20001B7D60201A4
:10084000DC6B00010EDE0401000101D00DDEB6EF0D
:1008500005F01EC0D9F204011951000A000105E09B
:100860000A0A0CE0010A2CE041D00401586B596BD4
:10087000020E0201DC6F0001F4DD39D00201D95310
:100880001CE0010ED95D036A0001ABDC016E0401BE
:100890001C5DD8A002D0020110D0036A1C512C0F9D
:1008A000E96E000E0320EA6EEFCF58F4010E02014C
:1008B000DC6F0001D6DD03D002010001D5DD17D0C9
:1008C0000201D95310E0036A04011C512C0FE96E98
:1008D000000E0320EA6E1AC4EFFF0201DC6B000178
:1008E000C0DD03D002010001BFDD01D0BDDDB6EFE8
:1008F00005F00201DA91D9BFDA81D99FDAA119D0C6
:10090000E96BD9C2E8F2EB6B080EEA6F0001DEDC9E
:1009100002C0DCF201C0DBF2040E0201DB27000E94
:10092000DC23DBC2E9FF040EDC25EA6E880EEF6EE5
:100930000FD0E96BD9C2E8F2EB6B080EEA6F000149
:10094000C5DC020101C0E9FF040E0224EA6EEF6A71
:1009500000012BEF05F00201DA91D9BFDA81D99FAE
:10096000DAA119D0E96BD9C2E8F2EB6B080EEA6F95
:100970000001ACDC02C0DCF201C0DBF2040E0201BB
:10098000DB27000EDC23DBC2E9FF040EDC25EA6E68
:10099000840EEF6E10D0E96BD9C2E8F2EB6B080E53
:1009A000EA6F000193DC020101C0E9FF040E02249A
:1009B000EA6E840EEF6E000133EF05F00201DA916A
:1009C000D9BFDA81D99FDAA119D0E96BD9C2E8F28F
:1009D000EB6B080EEA6F000179DC02C0DDF201C0AA
:1009E000DCF2040E0201DC27000EDD23DCC2E9FF8D
:1009F000040EDD25EA6EEFCFDBF210D0E96BD9C231
:100A0000E8F2EB6B080EEA6F000160DC020101C046
:100A1000E9FF040E0224EA6EEFCFDBF2DBAF02D077
:100A2000DBB502D0000E01D0010E016E00013FEFD8
:100A300005F01CC4E3F223DC01522EE0040119513D
:100A4000010A000105E0020A0BE0030A11E023D0CD
:100A50001CC4D9F24ED70201DC6B000102DD1CD0B0
:100A60001CC4D9F278D70201DC6B0001FADC14D087
:100A70000401586B596B1CC4D9F200019FD7015275
:100A800004E0010E0401586F0001020E0201DC6F48
:100A90000001E7DC01D0E8DCB6EF05F0FE0E266EC3
:100AA000120004011C2D01D002D01C5345E11FC4CB
:100AB000DAF21EC4D9F21951000A00010BE0010A52
:100AC0000DE0210A0FE0010A12E0030A23E0010A07
:100AD00028E030D0010E796FE1DF2DD0D9C2DCF2F1
:100AE000C0DC29D0020E796F7781D8DF24D0040EC4
:100AF000EA6E580EE96EE26A2E0EE16E070E016E86
:100B0000E6CFEEFF012EFCD7070E0201DC6F0001DD
:100B1000A8DC11D01AC478F00201DC6B0001A1DC62
:100B20000AD01AC436F01BC435F00201DC6B000198
:100B300098DC01D099DC04010001B6EF05F01D6AD4
:100B4000040118517F0B000A000107E0010A07E0C9
:100B5000030A07E0230A07E008D01DD607D079D69C
:100B600005D067D703D09DD701D07EDC0EEF08F00B
:100B70000201E96BDAC2E8F2EB6B080EEA6F0001E2
:100B800066EC01F0020101C0E9FF040E0224EA6EE6
:100B9000EFCFDCF2DB51020806E1DCAD02D0DB6B0B
:100BA00002D0010EDB6FDB5103081CE1840EDC6F09
:100BB000E96BDAC2E8F2EB6B080EEA6F000166EC53
:100BC00001F002C0E0F201C0DFF2040E0201DF27F3
:100BD000000EE023DFC2E9FF040EE025EA6E840E7A
:100BE000EF6E07D0DB2D03D0C80EDC6F02D0880E6D
:100BF000DC6FD890DA35036A0001AFEC00F0090031
:100C0000F5CF03F00201DD6F03C0DEF2E96BDAC25B
:100C1000E8F2EB6B080EEA6F000166EC01F001C030
:100C2000DFF2010E02010124016E000E0220036EAC
:100C300001C0E9FF040E0324EA6EDDC2EFFFDEA16E
:100C400001D0DC81DEA301D0DC83E96BDAC2E8F2FB
:100C5000EB6B080EEA6F000166EC01F0020101C0C7
:100C6000E9FF040E0224EA6EDCC2EFFF000112006D
:100C7000036A0201E751700FE96E0F0E0320EA6E5E
:100C8000EF521BE0E96BE7C2E8F2EB6B080EEA6F8C
:100C9000000166EC01F002C0E9F201C0E8F2040EC6
:100CA0000201E827000EE923E8C2E9FF040EE92566
:100CB000EA6EEFCFEAF2EAAF02D0000E01D0010EE9
:100CC000016E00011200E2C2E7F2D2DF0152D8B495
:100CD00087D00201E96BE2C2E8F2EB6B080EEA6F23
:100CE000000166EC01F002C0E8F201C0E7F2040E78
:100CF0000201E727000EE823010EE725016E000E32
:100D0000E821036E01C0E9FF040E0324EA6EE3C28A
:100D1000EFFFE551020820E1E96BE2C2E8F2EB6B7C
:100D2000080EEA6F000166EC01F002C0E8F201C0B3
:100D3000E7F2040E0201E727000EE823E7C2E9FF0D
:100D4000040EE825EA6EEFCFE6F2E6AD02D0E56BE1
:100D500002D0010EE56F1AD0E551040817E1E96BE6
:100D6000E2C2E8F2EB6B080EEA6F000166EC01F0FC
:100D7000020101C0E9FF040E0224EA6EEFCFE6F2A1
:100D8000E6AD03D0010EE56F01D0E56BE52D03D094
:100D9000C80EE66F02D0880EE66FE4A101D0E681AE
:100DA000E4A301D0E683E96BE2C2E8F2EB6B080E44
:100DB000EA6F000166EC01F002C0E8F201C0E7F260
:100DC000040E0201E727000EE823E7C2E9FF040E44
:100DD000E825EA6EE6C2EFFF010E016E04D00001C5
:100DE000000E016E0201000112007951010A03E0B8
:100DF000030A08E01BD00201DC6B000131EC02F0B9
:100E0000796B15D0EA6A2E0EE96E040EE26E180EAA
:100E1000E16E070E016EE6CFEEFF012EFCD7796B77
:100E20000201DC6B000131EC02F001D0796B56EF6E
:100E300007F00201E96BDAC2E8F2EB6B080EEA6F29
:100E4000000166EC01F002C0DCF201C0DBF2010E31
:100E500002010124016E000E0220036E01C0E9FFB1
:100E6000040E0324EA6E036AEFCF01F003C002F020
:100E700000014AEF07F02190020E0201DA6FDB6FEA
:100E8000000176DE12002180236A020E0201DA6F71
:100E90000001CFD701C022F0225201E1ECDF5DEF6B
:100EA00007F00201D95304E100019FD706D00201E7
:100EB000D951020803E10001E6D702010001120046
:100EC000DAC26EFF0201DA5303E0040E256E02D08F
:100ED000020E256E000172EF07F01E6A1D6A27C020
:100EE000DAF2EED7E8EF07F0DAC2E7F2C1DE01523C
:100EF00047E00201E96BDAC2E8F2EB6B080EEA6F39
:100F0000000166EC01F002C0E3F201C0E2F2040E5F
:100F10000201E227000EE323020EE225016E000E1D
:100F2000E321036E01C0E9FF040E0324EA6EECCF57
:100F3000E1F2ED52EFCFE0F2E1C2EAFFE0C2E9FFF9
:100F4000DCC2E2FFDBC2E1FFDEC202F0DDC201F083
:100F5000015202E0022A02D0025206E0E6CFEEFF82
:100F6000012EFCD7022EFAD7DAC2E2F2DEC2E4F298
:100F7000DDC2E3F2DFC2E5F20001A5DE015002D0DE
:100F8000000E016E1200765310E0020E0201DA6FBD
:100F9000DC6B370EDB6FDE6B76C0DDF2020EDF6FCF
:100FA0000001A2DF015201E0766B1200ECDFEFEFEF
:100FB00007F00201D9530EE11D2C05D0000136ECDB
:100FC00002F006D002011D50020803E1000185D79E
:100FD000020106D0D951020803E10001E7D702015E
:100FE0000001120024300201D76FD733D7331F0E10
:100FF000D71724524EE1040100513C0B0201D86F77
:10100000430E040100170201D851340825E1040100
:101010000451800B01E0046B000191D56D98263CD2
:1010200007D00201DA6B030EDB6F0001A1DD12D0E5
:101030000201DA6B020EDB6F00019ADD2650FE081A
:1010400009E00201E26BE46B26C0E3F2040EE56FF7
:10105000000139DE1CD00201D851040819E1D96B16
:1010600000011FDF0201DA6B020EDB6F000180DD81
:101070002650FE080CE0263C01D009D00201E26BAC
:10108000E46B26C0E3F2010EE56F00011CDE0201F5
:1010900022D02450040812E12668D96B000189DFB0
:1010A000263C01D009D00201E26BE46B26C0E3F2DA
:1010B000020EE56F000107DE0DD0020124B406D058
:1010C000D7C2D9F20001EDDE05D00201D7C2D9F2B4
:1010D00000016FDF02010001A1EF08F0A19A255283
:1010E000D8B439D06852D8B436D068A403D069B423
:1010F00017EF01F06DB22FD068AA03D069BA34EFB0
:1011000001F068A203D069B23BEF01F068A003D000
:1011100069B014EF02F068A803D069B829EF02F0B3
:1011200068AC03D069BC2EEF02F00201D66B68A652
:101130000AD069A608D06CCF24F0000102EC00F0C0
:1011400051D703D0020106D000010201D651D62B9F
:101150000308EDE200013CEF00F0C35320E1C2516F
:10116000F9081DE30201B82D01D002D0000117D00B
:10117000D8900001C235026EC335036E0250C40F11
:10118000E96E000E0320EA6EBFC0ECFFED52BEC058
:10119000EFFFBF6BBE6BC22BD8B4C32B04D0020EC3
:1011A0000201B86F0001FC0ED76E550ED66E9392F9
:1011B0008A72F2943CEF00F00201B82D05D00001D4
:1011C000BE2BD8B4BF2B0201F29200013CEF00F01D
:1011D000234F4B0A0000234F4E0A0000234F464680
:1011E0000A00234F4E0A0000234F46460A002352AE
:1011F000454144590A0023425553590A00002346E9
:10120000494E49534845440A0000020EEA6EBA0EA0
:10121000E96EEF500EE00F0E016E006A002EFED751
:10122000012EFBD78F0E006E002EFED70000EF2E92
:10123000F2D7120093948A94B9C2BAF2E6DF93947B
:101240008A84B9C2BAF2E1DF1200010E0201B86F5E
:101250000001BF6BBE6BC36BC26B870ED56EFC0EFD
:10126000D76E550ED66EF288F28AC00EF2127783D0
:1012700093968A861200F298F29AF29CF29EF2BE3F
:10128000FDD793968A967793030E0201B86F0001FB
:10129000EDEF0AF06D926D6A696A080E6F6E9450F8
:1012A00030090201946E256A196AF2BE198EF29E07
:1012B0000001FCEC01F019BEF28E60EF09F0EAD7F4
:1012C0008CEF09F0196AF2BE198EF29EFCEC01F067
:1012D00019BEF28E6D926D6A6D8C00D000D0000048
:1012E0006D9C140E6F6E696A6D86010E256E7CEF23
:1012F00009F06DB601D0E6D7252C0BD06DBA09D018
:10130000686A696AA08AC00EF212110E696E020E36
:10131000256E8DEF09F0D3D7ECD725500208FCE1FC
:10132000F0EF0AF021B001D0FDD72350232AA30FFC
:10133000E96E040EEA6ED8B0EA2AEFCFBBF2225073
:10134000235C07E3196AF2BE198EF29E94DD19BE82
:10135000F28E0201BBC201F000011200BC6BBC5155
:101360003F080AE3036ABC517C0FE96E000E0320BC
:10137000EA6EEF6ABC2BF3D721A036D0D3DF01C0D1
:10138000BDF0BD5123082CE1BC6B036ABC517C0F3E
:10139000E96E000E0320EA6EBDC0EFFF21A013D05E
:1013A000BC2B036ABC517C0F016E000E032201C0EE
:1013B000B9F203C0BAF20001B5DFBAC2EAFFB9C29E
:1013C000E9FF01C0EFFF036ABC517C0FE96E000E1C
:1013D0000320EA6EEF500A08E1E1010E016E06D02B
:1013E000000E016E03D002D0000E016E01EF0BF073
:1013F0000201C491A0BAC481A09A000176513E08AE
:1014000002E23E0E766F7651762B036A370FE96E55
:10141000000E0320EA6EC3C2EFFF0201C4A101D097
:10142000A08A000117EF0AF0C2C2C3F2E1D7196A1D
:10143000F2BE198EF29EA7DD19BEF28E28EF0AF0D9
:101440003F0ED880765501E1FBD7C1C2C2F2ECD77E
:1014500012000900F5520CE0F6CFB9F2F7CFBAF25C
:10146000F5CFC1F2EDDFB9C2F6FFBAC2F7FFF1D78F
:101470001200777377B302D08A9601D08A8693964A
:101480001FEF0BF00201BA6BB96B230EC16F0001A5
:10149000D7DF0201BC6BBB6BBE6BBD6BBE535CE1A7
:1014A000BD51F90859E3BF6BBAC2C0F2BAC2BFF26C
:1014B000C06BBAC2C1F20001C3DF0201B9C2BFF200
:1014C000C06BB9C2C1F20001BBDF2C0E0201C16FBB
:1014D0000001B6DFD8900201BD35026EBE35036E45
:1014E0000250C40FE96E000E0320EA6EECCFC0F28A
:1014F000ED52EFCFBFF2BF6BC0C2BFF2C06BBFC235
:10150000C1F200019DDFD8900201BD35026EBE35EB
:10151000036E0250C40FE96E000E0320EA6EECCF9A
:10152000C0F2ED52EFCFBFF2C06BBFC2C1F20001FB
:1015300087DF140E0201B927000EBA23BD51FA0845
:1015400002E1BE5305E0240EC16F000179DF020104
:10155000BD2BD8B4BE2BA2D70D0EC16F000170DF1A
:101560000A0E0201C16F00016BDF59EF0BF0F86A40
:10157000D09E078EBC6BBD6B7793BF6BBE6BC16B90
:10158000C06BC36BC26B0201B86BC150C00B0F09BB
:10159000C16E070EB46E1A6A040E1B6E0E0E1C6E20
:1015A00000017A6B7B6B020E0201B96FFA0EBA6F03
:1015B00000012BDE0201B92FF9D7E80EB96F000147
:1015C00039DE43DE0201B82D06D00A0EB96F0001E4
:1015D00031DEF8D7020100014ED693928A929BD653
:1015E000196AF2BE198EF29EBEEC01F019BEF28E9F
:1015F00077B106D02C0E0201B96F00011BDEF8D7BF
:10160000ADD60152D8B455D07C512308D8A451D0BE
:101610007E510A084EE17D51310A09E0030A0EE0CD
:10162000010A1BE0070A27E0010A41E042D0D00E80
:10163000F66E110EF76E0DDF08DE3BD01AD777B3CA
:1016400006D0D60EF66E110EF76E03DF05D0DC0E57
:10165000F66E110EF76EFDDE2CD077B306D0E20EDB
:10166000F66E110EF76EF5DE05D0E80EF66E110E71
:10167000F76EEFDE1ED00201B851000A000105E04E
:10168000010A09E0030A0DE011D0EE0EF66E110E0C
:10169000F76EDFDE0BD0F60EF66E110EF76ED9DEAA
:1016A00005D0FE0EF66E110EF76ED3DE02D0EAD62E
:0616B00000D0A6D70300E4
:020000040030CA
:0E00000022CE381E0085A1000FC00FE00F4079
:00000001FF
;PIC18F4550
;CRC=9B4F  CREATED="06-abr.-22 17:06"
